{
  "_format": "hh-sol-artifact-1",
  "contractName": "Voting",
  "sourceName": "contracts/Lock.sol",
  "abi": [
    {
      "inputs": [
        {
          "internalType": "string[]",
          "name": "candidateNames",
          "type": "string[]"
        }
      ],
      "stateMutability": "nonpayable",
      "type": "constructor"
    },
    {
      "anonymous": false,
      "inputs": [
        {
          "indexed": true,
          "internalType": "address",
          "name": "voter",
          "type": "address"
        },
        {
          "indexed": false,
          "internalType": "uint256",
          "name": "candidateIndex",
          "type": "uint256"
        }
      ],
      "name": "Voted",
      "type": "event"
    },
    {
      "anonymous": false,
      "inputs": [
        {
          "indexed": false,
          "internalType": "uint256",
          "name": "winningCandidatedIndex",
          "type": "uint256"
        }
      ],
      "name": "VotingClosed",
      "type": "event"
    },
    {
      "inputs": [
        {
          "internalType": "uint256",
          "name": "",
          "type": "uint256"
        }
      ],
      "name": "candidates",
      "outputs": [
        {
          "internalType": "string",
          "name": "namel",
          "type": "string"
        },
        {
          "internalType": "uint256",
          "name": "voteCount",
          "type": "uint256"
        }
      ],
      "stateMutability": "view",
      "type": "function"
    },
    {
      "inputs": [],
      "name": "endVoting",
      "outputs": [],
      "stateMutability": "nonpayable",
      "type": "function"
    },
    {
      "inputs": [],
      "name": "getCandidates",
      "outputs": [
        {
          "components": [
            {
              "internalType": "string",
              "name": "namel",
              "type": "string"
            },
            {
              "internalType": "uint256",
              "name": "voteCount",
              "type": "uint256"
            }
          ],
          "internalType": "struct Voting.Candidate[]",
          "name": "",
          "type": "tuple[]"
        }
      ],
      "stateMutability": "view",
      "type": "function"
    },
    {
      "inputs": [],
      "name": "owner",
      "outputs": [
        {
          "internalType": "address",
          "name": "",
          "type": "address"
        }
      ],
      "stateMutability": "view",
      "type": "function"
    },
    {
      "inputs": [
        {
          "internalType": "uint256",
          "name": "candidatesIndex",
          "type": "uint256"
        }
      ],
      "name": "vote",
      "outputs": [],
      "stateMutability": "nonpayable",
      "type": "function"
    },
    {
      "inputs": [
        {
          "internalType": "address",
          "name": "",
          "type": "address"
        }
      ],
      "name": "voters",
      "outputs": [
        {
          "internalType": "bool",
          "name": "",
          "type": "bool"
        }
      ],
      "stateMutability": "view",
      "type": "function"
    },
    {
      "inputs": [],
      "name": "votingEnded",
      "outputs": [
        {
          "internalType": "bool",
          "name": "",
          "type": "bool"
        }
      ],
      "stateMutability": "view",
      "type": "function"
    }
  ],
  "bytecode": "0x608060405234801561001057600080fd5b506040516114b13803806114b18339818101604052810190610032919061036b565b33600160006101000a81548173ffffffffffffffffffffffffffffffffffffffff021916908373ffffffffffffffffffffffffffffffffffffffff16021790555060005b8151811015610109576000604051806040016040528084848151811061009f5761009e6103b4565b5b602002602001015181526020016000815250908060018154018082558091505060019003906000526020600020906002020160009091909190915060008201518160000190816100ef9190610604565b506020820151816001015550508080600101915050610076565b50506106d6565b6000604051905090565b600080fd5b600080fd5b600080fd5b6000601f19601f8301169050919050565b7f4e487b7100000000000000000000000000000000000000000000000000000000600052604160045260246000fd5b61017282610129565b810181811067ffffffffffffffff821117156101915761019061013a565b5b80604052505050565b60006101a4610110565b90506101b08282610169565b919050565b600067ffffffffffffffff8211156101d0576101cf61013a565b5b602082029050602081019050919050565b600080fd5b600080fd5b600067ffffffffffffffff8211156102065761020561013a565b5b61020f82610129565b9050602081019050919050565b60005b8381101561023a57808201518184015260208101905061021f565b60008484015250505050565b6000610259610254846101eb565b61019a565b905082815260208101848484011115610275576102746101e6565b5b61028084828561021c565b509392505050565b600082601f83011261029d5761029c610124565b5b81516102ad848260208601610246565b91505092915050565b60006102c96102c4846101b5565b61019a565b905080838252602082019050602084028301858111156102ec576102eb6101e1565b5b835b8181101561033357805167ffffffffffffffff81111561031157610310610124565b5b80860161031e8982610288565b855260208501945050506020810190506102ee565b5050509392505050565b600082601f83011261035257610351610124565b5b81516103628482602086016102b6565b91505092915050565b6000602082840312156103815761038061011a565b5b600082015167ffffffffffffffff81111561039f5761039e61011f565b5b6103ab8482850161033d565b91505092915050565b7f4e487b7100000000000000000000000000000000000000000000000000000000600052603260045260246000fd5b600081519050919050565b7f4e487b7100000000000000000000000000000000000000000000000000000000600052602260045260246000fd5b6000600282049050600182168061043557607f821691505b602082108103610448576104476103ee565b5b50919050565b60008190508160005260206000209050919050565b60006020601f8301049050919050565b600082821b905092915050565b6000600883026104b07fffffffffffffffffffffffffffffffffffffffffffffffffffffffffffffffff82610473565b6104ba8683610473565b95508019841693508086168417925050509392505050565b6000819050919050565b6000819050919050565b60006105016104fc6104f7846104d2565b6104dc565b6104d2565b9050919050565b6000819050919050565b61051b836104e6565b61052f61052782610508565b848454610480565b825550505050565b600090565b610544610537565b61054f818484610512565b505050565b5b818110156105735761056860008261053c565b600181019050610555565b5050565b601f8211156105b8576105898161044e565b61059284610463565b810160208510156105a1578190505b6105b56105ad85610463565b830182610554565b50505b505050565b600082821c905092915050565b60006105db600019846008026105bd565b1980831691505092915050565b60006105f483836105ca565b9150826002028217905092915050565b61060d826103e3565b67ffffffffffffffff8111156106265761062561013a565b5b610630825461041d565b61063b828285610577565b600060209050601f83116001811461066e576000841561065c578287015190505b61066685826105e8565b8655506106ce565b601f19841661067c8661044e565b60005b828110156106a45784890151825560018201915060208501945060208101905061067f565b868310156106c157848901516106bd601f8916826105ca565b8355505b6001600288020188555050505b505050505050565b610dcc806106e56000396000f3fe608060405234801561001057600080fd5b506004361061007d5760003560e01c80638da5cb5b1161005b5780638da5cb5b146100ed5780639d5a05291461010b578063a3ec138d14610129578063c3403ddf146101595761007d565b80630121b93f1461008257806306a49fce1461009e5780633477ee2e146100bc575b600080fd5b61009c60048036038101906100979190610764565b610163565b005b6100a661036b565b6040516100b3919061092f565b60405180910390f35b6100d660048036038101906100d19190610764565b610466565b6040516100e49291906109aa565b60405180910390f35b6100f5610522565b6040516101029190610a1b565b60405180910390f35b610113610548565b6040516101209190610a51565b60405180910390f35b610143600480360381019061013e9190610a98565b61055b565b6040516101509190610a51565b60405180910390f35b61016161057b565b005b600360009054906101000a900460ff16156101b3576040517f08c379a00000000000000000000000000000000000000000000000000000000081526004016101aa90610b11565b60405180910390fd5b600260003373ffffffffffffffffffffffffffffffffffffffff1673ffffffffffffffffffffffffffffffffffffffff16815260200190815260200160002060009054906101000a900460ff1615610240576040517f08c379a000000000000000000000000000000000000000000000000000000000815260040161023790610b7d565b60405180910390fd5b6000805490508110610287576040517f08c379a000000000000000000000000000000000000000000000000000000000815260040161027e90610be9565b60405180910390fd5b6001600260003373ffffffffffffffffffffffffffffffffffffffff1673ffffffffffffffffffffffffffffffffffffffff16815260200190815260200160002060006101000a81548160ff021916908315150217905550600081815481106102f3576102f2610c09565b5b9060005260206000209060020201600101600081548092919061031590610c67565b91905055503373ffffffffffffffffffffffffffffffffffffffff167f4d99b957a2bc29a30ebd96a7be8e68fe50a3c701db28a91436490b7d53870ca4826040516103609190610caf565b60405180910390a250565b60606000805480602002602001604051908101604052809291908181526020016000905b8282101561045d57838290600052602060002090600202016040518060400160405290816000820180546103c290610cf9565b80601f01602080910402602001604051908101604052809291908181526020018280546103ee90610cf9565b801561043b5780601f106104105761010080835404028352916020019161043b565b820191906000526020600020905b81548152906001019060200180831161041e57829003601f168201915b505050505081526020016001820154815250508152602001906001019061038f565b50505050905090565b6000818154811061047657600080fd5b906000526020600020906002020160009150905080600001805461049990610cf9565b80601f01602080910402602001604051908101604052809291908181526020018280546104c590610cf9565b80156105125780601f106104e757610100808354040283529160200191610512565b820191906000526020600020905b8154815290600101906020018083116104f557829003601f168201915b5050505050908060010154905082565b600160009054906101000a900473ffffffffffffffffffffffffffffffffffffffff1681565b600360009054906101000a900460ff1681565b60026020528060005260406000206000915054906101000a900460ff1681565b600160009054906101000a900473ffffffffffffffffffffffffffffffffffffffff1673ffffffffffffffffffffffffffffffffffffffff163373ffffffffffffffffffffffffffffffffffffffff161461060b576040517f08c379a000000000000000000000000000000000000000000000000000000000815260040161060290610d76565b60405180910390fd5b600360009054906101000a900460ff161561065b576040517f08c379a000000000000000000000000000000000000000000000000000000000815260040161065290610b11565b60405180910390fd5b6001600360006101000a81548160ff021916908315150217905550600080600190505b6000805490508110156106ee576000828154811061069f5761069e610c09565b5b906000526020600020906002020160010154600082815481106106c5576106c4610c09565b5b90600052602060002090600202016001015411156106e1578091505b808060010191505061067e565b507f8e9b46a70b3967bc9ea56ca61732c363a191fac88ae3ba011f4e030711c901178160405161071e9190610caf565b60405180910390a150565b600080fd5b6000819050919050565b6107418161072e565b811461074c57600080fd5b50565b60008135905061075e81610738565b92915050565b60006020828403121561077a57610779610729565b5b60006107888482850161074f565b91505092915050565b600081519050919050565b600082825260208201905092915050565b6000819050602082019050919050565b600081519050919050565b600082825260208201905092915050565b60005b838110156107f75780820151818401526020810190506107dc565b60008484015250505050565b6000601f19601f8301169050919050565b600061081f826107bd565b61082981856107c8565b93506108398185602086016107d9565b61084281610803565b840191505092915050565b6108568161072e565b82525050565b600060408301600083015184820360008601526108798282610814565b915050602083015161088e602086018261084d565b508091505092915050565b60006108a5838361085c565b905092915050565b6000602082019050919050565b60006108c582610791565b6108cf818561079c565b9350836020820285016108e1856107ad565b8060005b8581101561091d57848403895281516108fe8582610899565b9450610909836108ad565b925060208a019950506001810190506108e5565b50829750879550505050505092915050565b6000602082019050818103600083015261094981846108ba565b905092915050565b600082825260208201905092915050565b600061096d826107bd565b6109778185610951565b93506109878185602086016107d9565b61099081610803565b840191505092915050565b6109a48161072e565b82525050565b600060408201905081810360008301526109c48185610962565b90506109d3602083018461099b565b9392505050565b600073ffffffffffffffffffffffffffffffffffffffff82169050919050565b6000610a05826109da565b9050919050565b610a15816109fa565b82525050565b6000602082019050610a306000830184610a0c565b92915050565b60008115159050919050565b610a4b81610a36565b82525050565b6000602082019050610a666000830184610a42565b92915050565b610a75816109fa565b8114610a8057600080fd5b50565b600081359050610a9281610a6c565b92915050565b600060208284031215610aae57610aad610729565b5b6000610abc84828501610a83565b91505092915050565b7f766f74696e672068617320656e64656400000000000000000000000000000000600082015250565b6000610afb601083610951565b9150610b0682610ac5565b602082019050919050565b60006020820190508181036000830152610b2a81610aee565b9050919050565b7f796f7520616c726561647920766f746564000000000000000000000000000000600082015250565b6000610b67601183610951565b9150610b7282610b31565b602082019050919050565b60006020820190508181036000830152610b9681610b5a565b9050919050565b7f696e76616c696420636164696461746573000000000000000000000000000000600082015250565b6000610bd3601183610951565b9150610bde82610b9d565b602082019050919050565b60006020820190508181036000830152610c0281610bc6565b9050919050565b7f4e487b7100000000000000000000000000000000000000000000000000000000600052603260045260246000fd5b7f4e487b7100000000000000000000000000000000000000000000000000000000600052601160045260246000fd5b6000610c728261072e565b91507fffffffffffffffffffffffffffffffffffffffffffffffffffffffffffffffff8203610ca457610ca3610c38565b5b600182019050919050565b6000602082019050610cc4600083018461099b565b92915050565b7f4e487b7100000000000000000000000000000000000000000000000000000000600052602260045260246000fd5b60006002820490506001821680610d1157607f821691505b602082108103610d2457610d23610cca565b5b50919050565b7f6f6e6c792063616e20706572666f726d207468697320616374696f6e00000000600082015250565b6000610d60601c83610951565b9150610d6b82610d2a565b602082019050919050565b60006020820190508181036000830152610d8f81610d53565b905091905056fea2646970667358221220f1411d879fcce5e572b38f0f286b302319fdc23caf116e7c5fc8001ff4f0c23564736f6c634300081c0033",
  "linkReferences": {},
  "deployedLinkReferences": {}
}